:020000041000EA
:4000000000400208230100100D00000085010010000000000000000000000000000000000000000000000000000000008101001000000000000000008101001081010010E9
:400040008101001081010010810100108101001081010010810100108101001081010010810100108101001081010010810100108101001081010010810100108101001060
:400080008101001081010010810100108101001081010010810100108101001081010010810100108101001081010010810100108101001081010010810100108101001020
:4000C00010B5064C2378002B07D1054B002B02D0044800E000BF0123237010BD3C060008000000002C250010084B10B5002B03D00749084800E000BF07480368002B00D1D9
:4001000010BD064B002BFBD09847F9E700000000400600082C250010E8000008000000007047FFF7FDFF72B60F4C104DAC4209DA21686268A368043B02DBC858D050FAE758
:400140000C34F3E70A490B4A0020521A02DD043A8850FCDC084809490860BFF34F8F00F005F900F01DF8FEE730250010482500103C060008140800080000000808ED00E0C5
:40018000FEE7FEE700B504207146084202D0EFF3098001E0EFF30880043001F099FBFEE710B562B6014800F067F9FEE70000081010B5002001F008F910BDC04670B5624988
:4001C000E0239B00CB580F2213401A00D0329200525807210A40032A05D0042A06D0002A12D15A4814E05A4A106811E01A00C0329200554952581F210A40112A06D0132A7C
:4002000004D0FA20C00103E0524801E080200002002B36D14C4BB222D2009A5801211140B125ED005A59120F032422405B591B0F1C4207D0444C63591B0F03242340012BDC
:4002400002D102E0012300E00023002B01D0002901D1032A4BD13C4BB022D2009D58AD03AD0B3D495958C904C90C9C58240E01231C40013401F034FE6843210001F030FE18
:4002800035E0012B33D1304BC822D2009A5801251540C024E4001A59120F03210A401B591B0F194207D028490B591B0F03210B40012B02D102E0012300E00023002B01D049
:4002C000002D01D1032A12D11F4DC022D200AB587F210B40A958090A1F263140AC58240C3440584301F0FCFD210001F0F9FDE0239B00154AD3581B0903221340D840144CA6
:400300006060164B1D692D0AFC32154001351969090E013101F0E4FDA060290001F0E0FD0500E06020610E4BC0180E4901F0D8FD20750D4BE818FA21890001F0D1FDA0612D
:40034000C003E06170BDC0460000264000127A00C000000800366E0184050000000021403F420F0040420F00E703000010B5284801F0B0FD274CB022D200A3585B005B084F
:40038000A350E0218900635830208343635080235B04A350204A214BE250A02292010433E250FF221E4BE25001F082FDC0225200A35801218B43A35000F0B2F9FFF7FEFEB6
:4003C000B0235B055B78002B04D0B0235B055B78DBB200E02123212B03D1124B0022DA605A60114C22008021042000F093FD2000103000F027FE0D4B1A685123D35C002BCD
:4004000002D00B4800F094FE00F0C2FA10BDC046742400100000264001000200840500008C050000E00023405806000810080008482000108023024AD358032018407047DE
:400440000000214010B501F0D4FA084980228C58074B2340074C23438B508823034AD358DB06FAD501F0C9FA10BDC04600002140FCFF00000100FA0570B50500830504D03B
:40048000E821FF310F4801F0F5F901F0B2FA0400FFF7D0FF032801D1FFF7D4FF0A4AB0239B00D55080215058084B03400848034353508823044AD358DB06FAD5200001F0BD
:4004C0009CFA70BD7C20001000002140FCFF00000300FA05FEE7C046014A024B1A60704701001180000E1F4130B587B07B4A116808230B4313607A4C03E0012001F0AEF9D3
:40050000013C764B1B695B0701D4002CF5D1002C01D1744B00E00023002B02D00520FFF7D9FF7148A021C900435803229343023A134343506D4A116808688823CB58C31819
:4005400018686B49084018601368186884241B59C01803681B021B0A80256D042B430360106805680359EB1818680140196013683E229A5C002A06D05B48E02189004258EE
:40058000753CA24342503E229A5C002A06D05648E021890042583024A24342503E229B5C002B07D05049E02292008B588020000603438B500021012000F038FF0021022054
:4005C00000F034FF0021032000F030FF0021042000F02CFF0021002000F028FF01A8454903000A0032CA32C312CA12C300F04CFF002802D00420FFF76DFF3B493E4A8B582D
:400600008020000603438B503C4800F0F9FF002802D00420FFF75EFF334C394BE158394A0A40E250E158384A0A40E250E25880252D062A43E250043BE158344A0A40E25081
:40064000E158334A0A40802189010A43E250E258802109020A43E250204A11682D4B0B401360002001F006FC2B4BE2582A43E250E158012291430A43E2506421002001F0AB
:400680003FF91A4B1B683F229A5C052A03D90021224A986881509A6874215B5AD2181168134B0B408C2189010B4313600F4B1A687323D15C703B8B4019007023D35C722088
:4006C000105C83400B43802109060B438021C9009068435093685B5807B030BD0000274020A1070002004A000000264010080008FF00FFFF94200010087F0000400D03009F
:4007000004050000FEFCFFFFFFFF00FFFFF0FFFFFF8FFFFFFFFCFFFF0C050000140C000070B58EB09621002001F0EAF801F0C0F8002814D101F0ACF8C0235B00344AD358D9
:40074000DB0705D41100334A8B585B005B088B502F49304A8B588020000603438B50012001F020FB2C4A516C2C4B0B40E82189010B435364536C1B0AFF2213403A2B07D1C9
:40078000254A516C264B0B40E82189010B43536401AC34220021200001F02EFC214D22000021280000F0FCF834220021200001F023FC22000121280000F0F2F8FFF794FE28
:4007C00024220021200001F017FC2100280000F081FA154D22002B00143343CB43C243CB43C243CB43C22100104800F073FA22002B00383323CB23C223CB23C223CB23C284
:4008000021000B4800F066FAFFF766FE0EB070BD000026400C05000000002740FF00FFFFFFC5FFDF00003240942000108002324000033240214B984230D00ED8402831D0FE
:4008400004D800281FD010282AD031E080282BD080235B00984229D02AE0194B984229D007D8A0231B0698420DD0164B984212D01EE0154B98420AD0144B984209D0144B73
:40088000984215D101E0002016E0124814E0124812E0124810E0A020C0030DE007480BE00F4809E00F4807E00F4805E0034803E00E4801E0A420C0037047C0460600520038
:4008C000010000F0090000A0040000F0050000F0030000F0010052000200520003005200010050000200500005005200FF00520070B5124B1A683123D35C002B04D1C421CF
:40090000FF310F4800F0B6FF0C4B1D682C00B423EB582A6A944663441B68002B0BDB094B1868FFF787FF6B6801229A6063689B68002BFBD100E0044870BDC046100800083C
:40094000F0200010E80700080200500010B50D4B1861002805D002230370FD33437000234380094B1B6850229A5C002A08D051229B5C002B04D04F3A0449002000F092FCFC
:4009800010BDC046E8070008100800086101000810B502481430FFF7D9FF10BDE8070008F8B54F464646C0B406000D001400002800D16FE1002A00D16EE1072903D9452190
:4009C000B84800F057FF2368012B03D94621B54800F050FF0F2362689A4303D04721B14800F048FF237A1F22934303D04821AD4800F040FFE368032B03D94921A94800F083
:400A000039FF2369012B03D94A21A64800F032FF6369012B03D94B21A24800F02BFFA369012B03D94C219F4800F024FFE369032B03D94D219B4800F01DFF236A012B03D969
:400A40004E21984800F016FF636A012B03D94F21944800F00FFFA36A012B03D95021914800F008FFE36A032B03D951218D4800F001FF236B072B03D952218A4800F0FAFE56
:400A80002768072D03D98849884800F0F3FE012F04D9CA218900854800F0ECFE002F03D10123AB40736002E00123AB40B3606768072D04D9F12189007C4800F0DBFE0F23CA
:400AC0003A009A4303D07A49784800F0D3FEA900784B1A687D23D35C9B191A6890460F2291468A40404690430200484607408F4017431F60277A072D04D9A22189006B48A4
:400B000000F0B8FE1F233A009A4303D06A49674800F0B0FE674B1A689369F31ADB0952691B01D318032D0AD81968E8001F22824091431F22174087400F431F600AE02A1F4B
:400B40005968D2001F20904081431F20074097400F435F60E768082D04D9DD21C900534800F088FE032F03D95449504800F082FE6900504B1A687C23D35C9B191A68904655
:400B8000032291468A40404690430200484607408F4017431F602769082D03D94849434800F068FE012F03D94649404800F062FEB36901221100A9408B431740AF401F4362
:400BC000B76163699846072D03D93F49374800F051FE4346012B03D93C49344800F04AFE34487E230268D35C9B191A6801273900A9408C468A43110042463A40AA400A43F4
:400C00001A606B0010229046984403210B00424693406246134399467F2203689A5C9446B44463461A684B469A43A3693B40AB401A43E3691940434699400A4363461A60D1
:400C400002688023D35CF6183368FF22944693431800236A1F40636A5A00022313403B43A26A9100042739400B431F00E36AD900182319403B000B43226B520161460A40DB
:400C80001343AD00FE2292001540AB4003433360002002E00E4800E00D480CBC90469946F8BDC046302100102703000070210010C50300001008000889020000E906000013
:400CC000690600006A060000030400000404000001005A0070B505000C0000285DD000295DD0FF230A689A4303D099212D4800F0C1FDFF2322699A4303D09A21294800F030
:400D0000B9FDA3685B0D03D09B21264800F0B2FD63685B0A03D09C21224800F0ABFDE3695B0F03D09D211F4800F0A4FD236A5B0F03D09E211B4800F09DFD1B4A11688B69A5
:400D4000EB1ADB0949691B01CB18216829607D211068415C6918E06808607E211068415C6918206908607F211068415C6918606908607C211068415C6918A06808606168EA
:400D8000A961116880228A5CAD18A2692A60E2691A60226A5A60002002E0044800E0034870BDC046302100101008000801005A0070B504000D000A4B1A68B423D3581B18F9
:400DC0001B68002B0ADA0B0C03D00649064800F051FD2D042D0C6560002000E0034870BD10080008D5020000B021001001008A0070B505000C000368002B01DA002300E0E8
:400E0000084B002B0BD1EA60230C03D00649074800F030FD2404240CAC60002000E0014870BDC04601008A00BB020000B021001070B505000C1E03D19921084800F01AFD0F
:400E4000074B1A68B423D3585B191B68002B03DAEB682360002000E0024870BDF02100101008000801008A0070B504000D00234B1A683123D35C834236D9002936D00B6865
:400E8000DB0635D13123D35C984204D3C421FF311B4800F0EFFC194B1B681A6AB0215B5A5C431419174E34602B68DA080021686801F0A2F800212000FFF77AFF3468002DA4
:400EC00003D111490E4800F0D5FC2A0000212000FFF78EFF00280DD10A4B18680021FFF767FF002808D108E0084806E0074804E0064802E0064800E0054870BD100800081D
:400F0000B0210010000800089303000003018A0001018A0010B50400002A17D1002915D1124B1A683123D35C984204D3C421FF310F4800F09FFC0D4B1B681A6AB0215B5A37
:400F40005C4314190B4B1C6000200EE0002A09D0002909D0074B59609A60191D2000FFF783FF02E0044800E0034810BD10080008B02100100008000803018A00F0B583B050
:400F80000D001C4B1B68DC68236883422DD947097B01C01A012383401E00002903D100F028FD019001E000230193124B18680368002B01DA002300E00F4B002B0ED163683A
:400FC000BF00DF193B68334203D0B3433B60002400E00A4C0021FFF7EBFE00E0084C002D04D1019800F009FD00E0064C200003B0F0BDC0460008000801008A0002018800C1
:401000000301880004018A000A4B1B68DA68136883420BD943095901401A0121814052689B009B580B4203D0034802E0034800E003487047000800080101880004018A0089
:4010400000018800034B1B68002B01D1014B18607047C0460C080008F0B5474680B404000F0090461E002D4B1B68002B03D1B5212B4800F0FFFB294B1B682C2060431C18C8
:40108000FF22150035402560330A13406360360CA660244B1A683123D35C9D4204D3C421FF31214800F0E6FB1E4B1A68B023D35A6B43116A8C466344236166683223D35C89
:4010C0009E4204D3E021FF31174800F0D3FB154B1B681D6A80367601AD196561A668330C04D0FF214900104800F0C4FB330C03D00E490D4800F0BEFB3604330C1E43AE60E8
:401100004346E36127620023A361069B002B02D000229B5EA38104BC9046F0BD0C0800083022001010080008B0210010FF010000F0B58FB0041E03D15221294800F09AFB50
:401140006368032B03D95421254800F093FBE36A002B03D15821224800F08CFB236B002B03D159211E4800F085FB07AA1300210061C961C321C921C302AD29002300143374
:40118000C1CBC1C141CB41C10821535E0CAE3380144B1B6836215B5E07998C466344B370089B0D930B9B0A980096A26AE16AFFF753FF2B69E868002200920021FFF74CFFE4
:4011C000216B300000F0E8FA0023F25E002A05DB1F231A401E3B9340034A13600FB0F0BD302200101008000800E100E0F8B505000F0016001C00002A03D1FD21224800F044
:4012000039FB224B1B68002B03D1FE211E4800F031FB1E4B1B682C2128004843181879435918012213004D68AB401B044568AA4015000269002A20D08F69002F1FD11268EA
:40124000002A01DA002200E0114A002A19D132681204120C134333600369DE6001238B614C6204692B0C03D00A490B4800F002FB2A04120CA260002004E0084802E00848FB
:4012800000E00748F8BDC046302200100C08000801008A00BB020000B021001004028A0007028A0070B504000D0016000F4B1B68002B04D1AF2149000D4800F0DBFA0B4BC8
:4012C0001B682C2060431C18236A002B04D1B1214900074800F0CEFAE369B34204D9236AB6009D51002000E0024870BD0C080008302200100A028A0070B582B00400002341
:401300000193002804D1D221FF312D4800F0B2FA2369002B04D1E9214900294800F0AAFA6369002B04D1D421FF31254800F0A2FA236A002B04D1EA214900214800F09AFA4C
:401340006269D5682B0C24D01B041360136820691C4B1A68B423D358C3181B68002B18DA01A9FFF765FD00280ED1019803681E0CFF221340E269934207D29B00226AD35848
:40138000002B02D0984700E0002631002069FFF70FFD2D042D0C0FD063691D601B68636A002B03D098470023636203E0A36A002B00D098470023A36163691B6802B070BDC9
:4013C000302200101008000810B50400084B1B68002B04D1B221FF31064800F04BFA044B1B682C2060431818FFF786FF10BDC0460C0800083022001010B50400094B1B68E9
:401400009B6CC340DB0703D4BE21074800F032FA044B1B681B691034A402E3580F20184010BDC0461008000870220010134B1A683C23D35C83421DD9042904D94B1EFF3B32
:401440009BB2132B18D8FF290CD91F2319400C4A0300C0339B009950D03080000423835000200AE007231940D0308000044BC150002002E0034800E0024870471008000844
:401480000000264001004A0070B5041E03D14A494A4800F0EFF9B023DB00494AD358002B00DA87E0474B22689A4203D94649434800F0E0F923689B039B0BE279002A02D0AE
:4014C0008022520400E000221343B022D2003C498B50A2883D4B9A4204D98C218900374800F0C8F922893A4B9A4203D93949334800F0C0F9A388DB04D90C23891B04364AFF
:4015000013400B43354A2E498B50A37A0F2B04D98E218900294800F0ADF9E37A0F2B03D92F49264800F0A6F9A289284B9A4203D92C49224800F09EF9A37A0F211940E27A20
:401540001201FF2313400B43A289120226490A401343A27B1207C02189050A401343B122D20017498B50A379042B03D91F49134800F080F9228A164B9A4204D991218900CE
:401580000E4800F077F90E4819494558194B1D40A3791B02E022D20013402B4343504558154B1D40238A1B040B4A13402B434350002000E0114870BD1F020000B0220010A6
:4015C00000002640FFFF030029020000FF1F0000FF010000310200000000FF0184050000390200003A02000000FF1F00430200008C050000FFF8FFFFFFFF00FE03004A00D6
:4016000070B505003149324A8B588020000603438B502C0003E0012000F020F9013CB223DB002A4AD3585B0701D4002CF3D12749B122D2008858274B0340802080050343DF
:401640008B50002D01D0002C0CD02049B022D2008B588020000603438B5003E0012000F0FDF8013CB223DB00184AD358DB0701D4002CF3D1002D01D0002C08D01349B12297
:40168000D2008B58C020800503438B5013E00F4BB121C90058580F4A02408020800502435A5008395A58520052085A5008495A58520052085A50002D03D0002C03D00020E7
:4016C00002E0002000E0044870BDC046000026408C050000FFFFFFCF02004A0070B505000C001A4B1B6828229A5C012A15D1820807211000884327D19200AD1AED00FF2021
:40170000A8401B6820339A181168AC4023004B40184004004C40146016E03A229B5EDBB2994203D176210A4800F0A4F8074B1B681B680722154080221206154380229201B1
:4017400094466444A400E55070BDC046100800083823001070B504000D000B4B9A680B4B9A420CD1002904D13821FF31084800F081F81034054BA400E058E55003E01034A7
:40178000A400044BE05870BD00ED00E0000000083823001000000010F0B5474680B482B0061E01914AD04368032B03D93221264800F060F80023F05E002804DBB178FFF7C4
:4017C0008DFF002400E0214C0023F15E7368002912DB88081E4FC0308000C55903221140C900FC3290468A4095439A01434613408B402B43C35116E089B20F220A40083A67
:4018000092080632920013481018476803221140C900FF252A008A4097439A012B0013408B403B4343600B4B9A680B4B9A4206D10023F05E0199FFF78DFF00E0034C20009F
:4018400002B004BC9046F0BD382300100100560000E100E000ED00E00000000810B5034B1B78584300F0BCF810BDC046D400000801BEFEE770B50D00044C18220100200006
:4018800000F0C2FBA5610020FFF7F2FF00060008054B802212069A649B6C002B01DB002000E002487047C0460000274003004600054B8022120198585B68FF221A4202D08C
:4018C0008023DB021843704700002640FEE7C04610B50A4B0268DA6142681A6282685A62C2689A620269DA6242691A6382695A63C2699A63FFF7EAFF10BDC04600060008F5
:40190000F0B5474680B4002801D0192300E064238B429B415B42304D2C682268A826A45BA41822680327BA433B401A4322602C682268A45BA2181668284CA04626401660A5
:401940002C682668AA229446A25A96193268BA43134333602A6813686546525BD3181A68444614401C60002805D010291BD921291BD8012024E0184B1B6855229A5C914296
:4019800015D956229A5C914213D957229A5C914211D958229A5C91420FD959229B5C99420DD804200CE000200AE0022008E0002006E0012004E0022002E0032000E0052028
:4019C000054A1268526813680F218B430343136004BC9046F0BDC04610080008FFFCFFFF0230800803D001300238FCD1C046C0467047EFF3108072B6704780F31088704735
:401A000010B5B0235B059B899BB2002B04D0B0235B059B899BB201E080235B0080225200934215D1184C23681968683A9B58C9180B680F208343963A13430B6021680C6830
:401A40009C23CB58E318196881430A431A6019E00D4C2368196898229B58C918B02040050A4BC2580A4B13400A681343C022920013430B60226811689C23D358CB18054A49
:401A800082581A6010BDC0461008000848180000FFFCFFFF4418000030B5B0235B059B899BB2002B04D0B0235B059B899BB201E080235B0080225200934215D1184C236881
:401AC0001968683A9B58C9180B680F208343953A13430B6021680C689C23CB58E318196881430A431A6019E00D4D2B68196898229B58C918B0246405C12040012258094BEF
:401B000013400A681343C022920013430B602A6811689C23D358CB1822581A6030BDC04610080008FFFCFFFFB0235B059B899BB2002B04D0B0235B059B899BB201E08023B2
:401B40005B008022520093420DD1104B1B681A6898215B58D21811680D4B0B40C021C9010B43136011E0094B1B68196898229B58C918084BB0225205D258074B13400A6891
:401B80001343C022920013430B60704710080008FF8FFFFF18180000FFFCFFFF30B5B0235B059B899BB2002B04D0B0235B059B899BB201E080235B008022520093420DD15C
:401BC000134B1B681A6898215B58D2181168114B0B408021C9010B43136018E00C4D2B68196898229B58C918B02464050A4822580A4B13400A681343C022920013430B603F
:401C00002A6811689C23D358CB1822581A6030BD10080008FF8FFFFF4C180000FFFCFFFF10B5B0235B059B899BB2002B04D0B0235B059B899BB201E080235B008022520003
:401C4000934217D10020FFF7D7FBB0235B055B78002B04D0B0235B055B78DBB200E02123222B03D8002803D1013004E0012002E0002000E0012010BDF8B50700012803D920
:401C80003D493E48FFF7F6FDB0235B055B78002B04D0B0235B055B78DBB200E021239DB2B0235B059B899BB2002B04D0B0235B059E89B6B201E0802676000020FFF79CFB15
:401CC000002814D180235B009E4212D1222D12D82B4B1B685C682B4821582B4B19403B068022520413400B432350002404E0274C02E0264C00E0254C80235B009E4201D148
:401D0000222D03D880235B009E4232D01C4B1A683123D35C002B04D1C421FF311C48FFF7A9FD174B1B681D6A80235B009E4203D1002F05D0174A06E0002F03D0164A02E06B
:401D4000164A00E0164A01212800FFF751F800280FD10B4B1A68B423D3585B191B68002BF7DBEB681B0E1B06A0221206934200D100242000F8BDC0464C0A00007C23001043
:401D80001008000818F00000FFFFFFFE04004200F0200010010100300300000C010000300100000CF8B50500012804D9822109012948FFF75FFDFFF733FF002849D0FFF794
:401DC00018FE0700002D11D10021244B244AD150E823DB00B0225205D65CF6B20120FFF74BFF041E19D1FFF70BFE16E0B02252051C4BD0581A4B194958501B49565CF6B268
:401E00001A481A581F218A4314390A431A500320FFF724FDFFF7C2FE0024002C15D11049124A8B581F20834306401E438E50002D02D1FFF779FE08E00720FFF70FFDFFF701
:401E40002BFE0020FFF718FF04003800FFF7D5FD00E0074C2000F8BD7C230010307F00000000264010180000410700001CFF000003004200042805D10B4A116804230B4327
:401E800013600FE0094B1A681168A023D358CB180006C022920410401860034A136804218B4313607047C04610E000E0100800080749C02252008B589B009B088020C00575
:401EC00003438B508B588020000603438B50704700002640014B18607047C04610080008002243088B4274D303098B425FD3030A8B4244D3030B8B4228D3030C8B420DD34A
:401F0000FF22090212BA030C8B4202D31212090265D0030B8B4219D300E0090AC30B8B4201D3CB03C01A5241830B8B4201D38B03C01A5241430B8B4201D34B03C01A52415C
:401F4000030B8B4201D30B03C01A5241C30A8B4201D3CB02C01A5241830A8B4201D38B02C01A5241430A8B4201D34B02C01A5241030A8B4201D30B02C01A5241CDD2C3092C
:401F80008B4201D3CB01C01A524183098B4201D38B01C01A524143098B4201D34B01C01A524103098B4201D30B01C01A5241C3088B4201D3CB00C01A524183088B4201D385
:401FC0008B00C01A524143088B4201D34B00C01A5241411A00D20146524110467047FFE701B5002000F006F802BDC0460029F7D076E770477047C04603008218934202D0BD
:4020000019700133FAE77047030030B5002A0DD00C7801335D1E013A2C700131002CF5D19A189A4202D01C700133FAE730BD0000F8B5C046F8BC08BC9E467047F8B5C046C7
:40204000F8BC08BC9E4670470300000001000000010000000000000005036000040000000100000000000000010000000604600008000000C8070008B101001073797374FC
:40208000656D5F70736F63365F636D30706C75732E630000F4010000140004010A000905080000006301000003000000000000000000000068000000000000000000000053
:4020C000000000001212000000000000000000000000000000000000006000BA0000000000000000000000000000000000001D1D47656E6572617465645F536F7572636509
:402100005C50536F43365C70646C5C647269766572732F7065726970686572616C2F6970632F63795F6970635F6472762E68000047656E6572617465645F536F75726365B5
:402140005C50536F43365C70646C5C647269766572735C7065726970686572616C5C6770696F5C63795F6770696F2E630000000047656E6572617465645F536F75726365B8
:402180005C50536F43365C70646C5C647269766572735C7065726970686572616C5C6770696F5C63795F6770696F2E680000000047656E6572617465645F536F7572636573
:4021C0005C50536F43365C70646C5C647269766572735C7065726970686572616C5C6970635C63795F6970635F6472762E68000047656E6572617465645F536F757263656E
:402200005C50536F43365C70646C5C647269766572735C7065726970686572616C5C6970635C63795F6970635F6472762E63000047656E6572617465645F536F7572636532
:402240005C50536F43365C70646C5C647269766572735C7065726970686572616C5C6970635C63795F6970635F706970652E630047656E6572617465645F536F7572636590
:402280005C50536F43365C70646C5C647269766572735C7065726970686572616C5C70726F745C63795F70726F742E630000000047656E6572617465645F536F757263654B
:4022C0005C50536F43365C70646C5C647269766572735C7065726970686572616C5C737973636C6B5C63795F737973636C6B2E630000000047656E6572617465645F536F12
:40230000757263655C50536F43365C70646C5C647269766572735C7065726970686572616C5C737973636C6B5C63795F737973636C6B2E680000000047656E6572617465A2
:40234000645F536F757263655C50536F43365C70646C5C647269766572735C7065726970686572616C5C737973696E745C63795F737973696E742E630000000047656E656C
:4023800072617465645F536F757263655C50536F43365C70646C5C647269766572735C7065726970686572616C5C737973706D5C63795F737973706D2E630000000020407B
:4023C00000002440000000400000000000002340000030400000314000009F40000022400000104002020202020202020210101D800017007500FF0306020636041020008F
:40240000000000007FC0000000040000000000000019324B647D00804000080B100000000000FF012002001F00800004FF081018001000140018001C4044484C500000004B
:40244000081000000800000004000000041000000012000004210000002100000016000040114002C41300138013A013200000001C000000000021400000254000000140B0
:402480000000344000002440000031400000324000001F410000234000001140010101010101010101101010800019005500F0000501053B04101C01010000000FC00000EF
:4024C0000004000001010101011D3A57789600082000101208000000001F00000010000F002000023F06080E00080009000A000B24282C3034000000100000009000000068
:4025000088000000080000008000000004F0000000F00000400200002005A000D00100018001A0012000000010000000000000000000001000000008C0000000502500101F
:40254000C0000008400500003C060008D80100000048E80100127A0000093D0000093D0000093D0004000000A00F00000000D007E9000010C10000100000000010B500047F
:40258000400B27D0144B1A68146AB023D15ACA00531AE3181B68002BF4DA3E220F4B1A600F4A104B1A60104B0621A322D20099500E4A98509B58084B1A68106AB023D15AEA
:4025C000CA00531AC31800225A60084B064AD358002BFADA10BDC04610080008040126401E1F000008012640000026401C05000010B54378FF2B20D100F00AFA04000F4BA2
:402600001A683123D35C042B04D8C421FF310C4800F0F6F9094B1A68116AB023D35A9B00CB18DB685A68116801230B4313601368DB07FCD4200000F013FA10BD10080008D9
:40264000F0200010F0B585B001900291544B1A683123D35C002B04D1C421FF31514800F0CFF94F4B1B681E6AB4229A58971950229B5C002B77D000F0E3F9050003283CD131
:40268000474B1A683123D35C062B04D8C421FF31444800F0B5F9424B1968B023CB5A5A00D21853000A6A94466344B4228A58D3181B68002B23DB002000F0E2F93A4B98420C
:4026C0001FD03A4B1A6900230021012000F0A8F9002803D0364C17E0013400E00024002000F0CEF9304B984202D0324B9C42F3D9304B9C4207D92E4C06E0002404E02C4C02
:4027000002E02B4C00E00024002C46D100F080F90390294B294AD358002B13DA234A0121300000F0A5F900280ED10298FFF726FF019B002B0AD03B68002BFCDB00F078F923
:40274000040004E01A4C02E0194C00E01C4C032D05D10121002000F07BF90028F9D1039800F07EF919E000F053F905000F4A0121300000F07DF9002809D1019B002B08D0F0
:402780003B68002BFCDB00F053F9040002E0084C00E00B4C280000F063F9200005B0F0BD10080008F020001001018800E807000805005200EF4902001C05000000002640F8
:4027C00001005000F0B54F464646C0B4824B1A685468B0235B055B78002B04D0B0235B055B78DBB200E02123212B67D1B023D15ACB005B1A116A8C46634419680029F5DA58
:40280000DD6802212943D960B023D15ACB005B1A116A8C466344D968C9073ED5D9680904090C8C4684271168D559A84641440968090A0904FF26360431400D0088261168A6
:40284000894691598846C14449460968090A0906294365462943D9601168D359C9180A685E4B98461A4090252D012A430A605A4B99461A6813689C46925962441368414665
:4028800019400B002B4313604B461A681568D15969180B689359EB181B684F4B1A68B021555AEB005B1B156AAC46634400255D60156A515ACA00531AEB185B68484A116989
:4028C00004230B431361012801D030BF00E020BF414B1A68B023D15ACB005B1A116A8C46634419680029F3DAB02149054978002904D0B02149054978C9B200E021212129EC
:4029000032D1D968C90722D510688421525880180468324A1440DB681B0C1B02FF2109020B40234303602C4B19688823C8580B689C46604403681A400D6AB023CC5AE10059
:402940000B1BEB18DB681B0E1B021A430260224B1A68106AB023D15ACA00531AC318DA6802218A43DA6028E086235B00E358002B23D11C4807681C4BA321C9005E581B4AB9
:40298000904615681A4A0260062058503E21424611600631174A9950164B134AD358002BFADA154A86235B00E2500E4B1F60A323DB000D4AD6500D4B1D60074B1A68106AC1
:4029C000B023D15ACA00531AC31800225A600CBC90469946F0BDC04610080008FF00FFFF00ED00E00801264000002640040126401E1F00001C050000AAAAAAAA000000008B
:402A000001B40248844601BC604700BF7518001001B40248844601BC604700BFF319001001B40248844601BC604700BFED11001001B40248844601BC604700BFF108001016
:402A400001B40248844601BC604700BF3504001001B40248844601BC604700BF7D0F001001B40248844601BC604700BFFB19001001B40248844601BC604700BFF10D00108F
:402A800001B40248844601BC604700BF0910001000000000000000000000000000000000000000000000000000000000000000000000000000000000000000000000000001
:402AC00000000000000000000000000000000000000000000000000000000000000000000000000000000000000000000000000000000000000000000000000000000000D6
:402B00000000000000000000000000000000000000000000000000000000000000000000000000000000000000000000000000000000000000000000000000000000000095
:402B40000000000000000000000000000000000000000000000000000000000000000000000000000000000000000000000000000000000000000000000000000000000055
:402B80000000000000000000000000000000000000000000000000000000000000000000000000000000000000000000000000000000000000000000000000000000000015
:402BC00000000000000000000000000000000000000000000000000000000000000000000000000000000000000000000000000000000000000000000000000000000000D5
:020000041008E2
:4000000000780408EB0208100D00000051030810510308105103081051030810000000000000000000000000000000004D0308104D030810000000004D0308104D030810DA
:400040004D0308104D0308104D0308104D0308104D0308104D0308104D0308104D0308104D0308104D0308104D0308104D0308104D0308104D0308104D0308104D03081000
:400080004D0308104D0308104D0308104D0308104D0308104D0308104D0308104D0308104D0308104D0308104D0308104D0308104D0308104D0308104D0308104D030810C0
:4000C0004D0308104D0308104D0308104D0308104D0308104D0308104D0308104D0308104D0308104D0308104D0308104D0308104D0308104D0308104D0308104D03081080
:400100004D0308104D0308104D0308104D0308104D0308104D0308104D0308104D0308104D0308104D0308104D0308104D0308104D0308104D0308104D0308104D0308103F
:400140004D0308104D0308104D0308104D0308104D0308104D0308104D0308104D0308104D0308104D0308104D0308104D0308104D0308104D0308104D0308104D030810FF
:400180004D0308104D0308104D0308104D0308104D0308104D0308104D0308104D0308104D0308104D0308104D0308104D0308104D0308104D0308104D0308104D030810BF
:4001C0004D0308104D0308104D0308104D0308104D0308104D0308104D0308104D0308104D0308104D0308104D0308104D0308104D0308104D0308104D0308104D0308107F
:400200004D0308104D0308104D0308104D0308104D0308104D0308104D0308104D0308104D0308104D0308104D0308104D0308104D0308104D0308104D0308104D0308103E
:400240004D0308104D0308104D0308104D0308104D0308104D0308104D0308104D0308104D0308104D0308104D0308104D0308104D0308104D0308104D0308104D030810FE
:400280004D0308104D0308104D03081010B5054C237833B9044B13B10448AFF300800123237010BD4C49020800000000202B0810084B10B51BB108490848AFF3008008486B
:4002C000036803B910BD074B002BFBD0BDE81040184700BF0000000050490208202B08101C430208000000007047FFF7FDFF72B6104C114DAC4209DA21686268A368043B47
:40030000A2BFC858D050FAE70C34F3E70B490C4A00209142BCBF41F8040BFAE709480A490860BFF34F8F00F0F9FB00F0D3FB00F01DF8FEE7242B08103C2B08104C49020833
:40034000DC4B02080040020808ED00E0FEE7FEE700B504207146084202D0EFF3098001E0EFF30880043001F0B5FCFEE708B562B600F00CFCAD4B18680023022219464068B3
:4003800001F08AFD00230DE003EB43011144FF24A74844540132D2B200E00022022AF3D90133DBB2022BF8D9002305E0A04A1A44222111730133DBB2082BF7D9002210E027
:4003C0009B4B1344AA211976BB211977CC2183F82010DD2183F82410992183F828100132D2B2012AECD9002447E0914D042205F12C01904800F0EEFF95F82C303C2B14D145
:4004000095F82F303E2B10D109E0894A02F11800591C0A4492F82C20C254CBB200E00023012BF2D90022824BDA628148022200F11C01183001F0DEFC20B901247C4B83F820
:4004400030401AE07A48022200F12001183001F0D1FC28B90222764B83F8302001240CE07348022200F12401183001F0C3FC20B903226F4B83F830200124002CB5D06C4C74
:40048000042204F12C016B4800F0A4FF94F82C303C2B14D194F82F303E2B10D109E0644B03F11800511C0B4493F82C308354CAB200E00022012AF2D900225D4BDA625C4809
:4004C000022200F12801183001F094FC002840F085800022564B83F830200121564B19700DE002EB42011944FF24514844540133DBB200E00023022BF3D90132D2B2022A50
:40050000F8D9002305E04A4A1A44222111730133DBB2082BF7D9002210E0454B1344AA211976BB211977CC2183F82010DD2183F82410992183F828100132D2B2012AECD94D
:40054000002447E03A4D042205F12C01394800F041FF95F82C303C2B14D195F82F303E2B10D109E0324B03F11800511C0B4493F82C308354CAB200E00022012AF2D90022C2
:400580002B4BDA622A48022200F11C01183001F031FC20B90124264B83F830401AE02448022200F12001183001F024FC28B902221F4B83F8302001240CE01D48022200F16B
:4005C0002401183001F016FC20B90322184B83F830200124002CB5D000236CE1164B1B7863BB134B3C2283F834203E2283F83E20012307E00E4AD118C97A1A4482F8341098
:400600000133DBB2092BF5D9094E06F134050B222946084800F03CFF00247463B463C6F83B40322001F02CFB234644E11043020868490208000066408C420208B84B93F8F2
:400640003030022B46D0032B00F0D680012B40F02D81B34B1B7E5A1E022A00F22981B04A527E511E022900F22581013BDBB203EB430353FA81F3AA4AD25CFF2A08D1A849B3
:4006800091F83F20CA54B2FA82F35B0981F83F30A34B3C2283F834203E2283F83E20012308E09F4AD11811F8011C1A4482F834100133DBB2092BF4D9994D05F134040B2250
:4006C0002146984800F0E4FE00236B63AB63C5F83B30F0E0924B1B7E5A1E022A21D8904A527E511E02291CD88F494978C9B1013BDBB2013A03EB430353FA82F3884AD25C92
:40070000FF2A08D1864890F83F20C254B2FA82F35B0980F83F30B1FA81F35B09824A537048E0814B5B78002B44D101F07BFB7F4D85FB0034A4EBE07404EB4404041BE4B2B1
:4007400001F070FB85FB0023A3EBE07303EB4303C31ADBB214E001F065FB744D85FB0034A4EBE07404EB4404041BE4B201F05AFB85FB0023A3EBE07303EB4303C31ADBB20A
:4007800004EB44042344664AD25CFF2AE3D108D1634991F83F20CA54B2FA82F35B0981F83F30614A5378B3FA83F35B095370322001F066FA5A4B3C2283F834203E2283F8D8
:4007C0003E20012308E0564AD11811F8011C1A4482F834100133DBB2092BF4D9504D05F134040B2221464F4800F052FE00236B63AB63C5F83B305EE001F014FB4B4C84FB51
:400800000035A5EBE07505EB4505451B01F00AFB84FB0023A3EBE07303EB4303C31AEDB205EB450555FA83F33D4AD25CFF2A08D13B4991F83F20CA54B2FA82F35B0981F89D
:400840003F30374B3C2283F834203E2283F83E20012308E0324AD11811F8011C1A4482F834100133DBB2092BF4D92D4E06F134050B2229462B4800F00BFE00247463B463E7
:40088000C6F83B40322001F0FBF9234613E0244AD25CFF2A04D10122234B1A7000203BE00021214A11700133DBB204E0002302E0002300E00023082BE9D9EFE7184AD55C41
:4008C00000EBC0011A4A1144CA5C2A4014440133DBB201E000231C46082BEFD964B90023114A137005E00E4A1A44882111730133DBB2082BF7D90DE0032C0BD100230A4A70
:40090000137005E0064A1A44772111730133DBB2082BF7D90130C0B20728DBD9AFE500BF68490208000066408C420208565555557C26081008B5012000F00CFD08BD00BF45
:40094000704700BF5C4AD2F8803303F00F0303F1D00152F8212002F00702032A04D0042A05D092B9554914E0554A116811E003F1C002514951F8222002F01F02112A06D0A5
:40098000132A04D04FF4FA4103E04E4901E04FF400418BBB484BD3F8902502F00100D3F88825C2F30172D3F8883513F0405F07D0414BD3F88835C3F30173012B02D102E0BD
:4009C000012300E0002303B108B9032A46D13A48D0F88025C2F31103D0F88425C2F30C02D0F88005C0F300600130B1FBF2F202FB03F2B2FBF0F131E0012B2FD12E4BD3F809
:400A0000402602F00100D3F80026C2F30172D3F8003613F0405F07D0274BD3F80036C3F30173012B02D102E0012300E0002303B108B9032A12D12048D0F8002602F07F02D7
:400A4000D0F80036C3F30423D0F80006C0F3044002FB01F2B2FBF3F2B2FBF0F1164BD3F88033C3F3011321FA03F215494A601648D0F89030C3F3072301330069000E013063
:400A8000B2FBF0F08860B2FBF3F3CB600B6103F5742202F23F220D48A0FB0202C2F387420A7503F2E7330A4AA2FB03239B098B61DB03CB61704700BF0000264000127A009B
:400AC0009042020800366E010000214083DE1B43D34D621008B50D4801F05EF9FFF730FFFFF730FF00221146042000F0FBF9084800F08EFA074B1B6893F8513013B10648E3
:400B000000F0F6FA00F038F908BD00BF002A0810A8490208D44B0208C426081008B501F034F9074AD2F8883043F47003C2F88830BFF34F8FBFF36F8F01F02BF908BD00BF25
:400B400000ED00E010B504462146034800F05AFC0028F9D010BD00BF00006640054BD3F80833C3F30803002BF8D0024BD3F84003704700BF0000664008B50249024800F0BB
:400B8000ADFF08BD9C4B02080000664008B5114B1B785BB9104A1149114800F07BFD1149114801F033F801220A4B1A700E4BB3F90030002B08DB590903F01F03012202FA4E
:400BC00003F30A4A42F82130054A136843F00043136008BD284B02089C4B02080027081000006640790B0810F826081000E100E01F4B98422DD00CD840282ED003D8E8B1C3
:400C0000102828D02FE0802829D0B0F5807F28D029E0184B984228D006D8B0F1204F0DD0154B984212D01EE0144B98420AD00133984209D0023B984215D101E00020704766
:400C40000F4870470F4870470F4870474FF4A0007047074870470D4870470D4870470D487047034870470C4870474FF4A400704706005200010000F0090000A0040000F0F5
:400C8000010052000200520003005200010050000200500005005200FF00520038B5124B1B6893F83130012B04D840F2C3110F4801F000F80C4B1D682A6AB5F8B030134492
:400CC0002C46D5F8B420D358002B0BDB084B1868FFF78EFF6B6801229A6063689B68002BFBD138BD034838BDD44B0208402708102C4B0208020050001A4B186128B102230E
:400D00000370FF23437000234380174B1B6893F850202AB300B583B0B3F93830ADF80030002301931149684600F070FFBDF90030002B08DB590903F01F03012202FA03F359
:400D40000B4A42F82130084B1B6893F8513023B102220849012000F077FA03B05DF804FB704700BF2C4B0208D44B02088D43020800E100E04544020808B50248FFF7BCFFD9
:400D800008BD00BF404B020838B50B4B1B68D3F8B4301B58002B0DDA0D4604460B0C1B0423B140F2D521054800F084FFA9B26160002038BD024838BDD44B02088027081039
:400DC00001008A0038B50368002B01DA002300E0094B73B90D460446C2600B0C1B0423B140F2BB21054800F065FFA9B2A160002038BD014838BD00BF01008A008027081057
:400E000038B504460D4619B99921084800F052FF074B1B68D3F8B4301B59002B03DAE3682B60002038BD034838BD00BFC0270810D44B020801008A00254B1B6893F831308F
:400E400083423AD900293AD00B6813F01F0F38D170B50D4604461E4B1B6893F83130984204D340F2C3111B4800F024FF184B1B68186AB3F8B03004FB0304174E34602A686F
:400E8000D2080021686800F0C4FF00212046FFF77BFF346825B940F293310E4800F00AFF2A4600212046FFF78DFF60B900210A4B1868FFF769FF40B970BD0848704707489C
:400EC000704706487047064870BD054870BD00BFD44B020880270810444B020803018A0001018A0010B504461346B2B9A9B9124B1B6893F83130984204D340F2C3110F48D8
:400F000000F0D8FE0C4B1B681A6AB3F8B03004FB03240B4B1C60002010BD43B149B1084A51609360111D2046FFF786FF10BD054810BD044810BD00BFD44B02088027081083
:400F4000444B020803018A002DE9F0411B4B1B68DC68236883422CD90D464609A0EB4610012303FA00F819B900F00FFF074600E00027124B18680368002B01DA002300E070
:400F80000F4B83B9626852F8263018EA030F05D023EA080342F82630002400E0094C0021FFF7F2FE00E0084C25B9384600F0F1FE00E0064C2046BDE8F08100BF444B0208CB
:400FC00001008A00020188000301880004018A000B4B1B68DB681A6882420CD94109A0EB4110012202FA00F05B6853F82130184203D004487047044870470448704700BFF0
:40100000444B02080101880004018A0000018800024B1B680BB9014B18607047504B02082DE9F8430446884691461D46089F2C4B1B681BB9B5212B4800F03CFE284B1B6840
:401040002C2000FB04F01C18EEB21E50C5F3072363602D0CA560244B1B6893F831309E4204D340F2C311214800F024FE1E4B1B68196AB3F8B02006FB02162661666893F817
:4010800032309E4204D340F2DF11184800F012FE154B1B681D6A803605EB46156561A668330C1B0423B14FF4FF71104800F002FE330C1B0423B140F2FF110C4800F0FAFD7A
:4010C000B3B243EA0646AE60C4F81C90C4F820800023A36117B1B7F90030A381BDE8F883504B020800280810D44B020880270810F0B58FB0044618B95221274800F0DAFDB8
:40110000A369072B03D95621234800F0D3FDE36A1BB95821204800F0CDFD236B1BB959211D4800F0C7FD07AD04F114060FCE0FC537682F6002AD26460FCE0FC533682B60AE
:40114000164B1B68B3F93620079B1344ADF83030089B0D93A26AE16A0CAD00953B460A98FFF75EFF00210091069B0A460598FFF757FF216B284600F049FDBDF93030002B30
:4011800008DB590903F01F03012202FA03F3044A42F821300FB0F0BD00280810D44B020800E100E0F8B506460F461D4614461AB9FD211F4800F07EFD1E4B1B681BB9FE21A4
:4011C0001B4800F077FD1B4B1B682C2101FB063001FB07314B68012202FA03F31B04466802FA06F60269EAB18F69EFB91268002A01DA002200E0104AC2B922881343236080
:401200000369DC6001238B614D620469330C1B0423B140F2BB21094800F04CFDB2B2A2600020F8BD0648F8BD0648F8BD0548F8BD00280810504B020801008A00802708109E
:4012400004028A0007028A00F8B505460F4616460E4B1B6823B94FF4AF710D4800F02AFD0A4B1B682C2404FB0534236A23B94FF4B171074800F01EFDE369B34204D9236AE8
:4012800043F826700020F8BD0248F8BD504B0208002808100A028A0070B582B000230193044620B940F2D111284800F003FD236923B94FF4E971254800F0FCFC636923B967
:4012C00040F2D311214800F0F5FC236A23B94FF4EA711E4800F0EEFC6369DD682A0C20D012041A601B682069194B1B68D3F8B430C358002B15DA01A9FFF782FD60B90198D8
:4013000003681E0CDBB2E269934206D2226A52F8233013B1984700E0002631462069FFF733FDADB275B16369ADB21D601B68636A1BB198470023636202E0A36A03B1984709
:401340000023A36163691B6802B070BD00280810D44B020810B50446074B1B6823B940F2B111064800F0A6FC034B1B682C2000FB0430FFF791FF10BD504B02080028081097
:4013800010B4D0F8003303F00F03072B06D900230DE0D0F84043CC54013300E000239342F7D306E0D0F8404321F8134001339342F8D35DF8044B704710B51446D0F8083319
:4013C000C3F308039A4200D31C462246FFF7D8FF204610BDF8B507460D461446D0F8006306F00F060BE0224629463846FFF7E4FF072E01D9430000E003461D44241A002C77
:40140000F1D1F8BD036813F4006F01D0802200E04022D0F80832C3F30803934203D0C0F84012012070470020704700BF10B4D0F8003203F00F03072B06D900230DE0CC5CB0
:40144000C0F84042013300E000239342F7D306E031F81340C0F8404201339342F8D35DF8044B704710B51446036813F4006F01D0802200E04022D0F80832C3F30803D31A2C
:40148000A34200D81C462246FFF7D0FF204610BDF8B507460D461446D0F8006206F00F060BE0224629463846FFF7DCFF072E01D9430000E003461D44241A002CF1D1F8BD03
:4014C0002DE9F84305460C46036813F4006F02D04FF0800801E04FF04008D5F8007207F00F07A26A012A19D9D4F82490E262561EB9F1000F00D026B940F27351254800F0B4
:40150000D9FB324649462846FFF7ACFFA36A1B1AA362072F00D9400048446062D5F80832C3F30803984533D0A36A012B30D10023A362072F02D8636A1E7801E0636A1E880C
:4015400000F023FCC5F840624FF40073C5F8803FD5F8803F00F01DFCD5F8883F23F4007222F0010242F4007623F4EE6323F0030323B140F22A41084800F09CFBC5F8886FDB
:40158000236843F002032360236B0BB101209847BDE8F88340280810802808102DE9F04105460C46036813F4006F01D0802600E040267608A769D4F81C8017B1B8F1000F43
:4015C00004D14FF49961314800F074FB424639462846FFF7F1FE236A03442362E3691B1AE36173BBA368FBB1E3689E4201D8013E00E05E1E2B6813F4006F01D0802300E0A8
:4016000040239E4204D34FF42071214800F052FBD5F8043323F0FF03F6B21E43C5F804630123C5F8C83F02E00023C5F8C83F636823F001036360236B33B304209847BDE85E
:40164000F081A169D5F8002302F00F02072A00D940000844A0619E4216D95C1E2B6813F4006F01D0802300E040239C4204D34FF42071074800F01EFBD5F8043323F0FF0263
:40168000E3B21343C5F80433BDE8F0814028081080280810002800F0A48170B50546002900F0A18116460C460B78022B03D93F21A24800F0FFFA637B023BDBB2062B03D9EB
:4016C00040219E4800F0F6FAA37B3BB1022B05D0032B03D04121994800F0ECFA94F82130012B03D94221954800F0E4FA94F82830012B03D94321914800F0DCFA2378012BF4
:4017000006D86368083B082B94BF0023012307E0A37F2BB16368013B062B94BF002301231BB14521854800F0C5FAA368053B042B03D94621814800F0BDFA6369FF2B03D98C
:4017400047217E4800F0B6FAA369FF2B03D948217A4800F0AFFAA37C6BB1237833B9A368092B05D1A37B2BB1012304E0012302E0012300E000231BB14A21704800F09AFA4C
:40178000636B23F4366323F00D031BB14C216B4800F090FAE36B23F4EE6323F003031BB14D21664800F086FA2378022B01D1A37F13B16268013A00E00022237F13B14FF4CB
:4017C000803100E00021A368082B02D84FF4006300E000230B4302F00F02134343F000732B60226B2B6813F4006F01D0802300E040239A4203D36221504800F05BFAA26B32
:401800002B6813F4006F01D0802300E040239A4203D36321494800F04DFA626A2B6813F4006F01D0802300E040239A4203D36421424800F03FFA23781B0603F040732B6483
:40184000637F0BB1402200E00022A37C13B14FF4806300E000231343227C12B14FF4807200E000221343627C12B14FF4007200E000221A43E36A013B1B0403F470231343D9
:40188000627B013A02F007021343A27B120102F030021343AB64237B13B14FF4807200E00022E37B23B92378022B03D1012302E0012300E0002313B14FF4007300E00023ED
:4018C0001A43A368013B03F00F031343C5F80033227DA3691B0403F47F031343C5F81033E26AD5F8003303F00F0303339A4201D3102A03D97A21114800F0DCF9E37F23B124
:401900002378012B03D0002302E0002300E0012313B14FF4807200E00022637B013B03F007031A43A37B1B0103F0300313436B64237B2BB14FF4807203E000BFC428081098
:401940000022A368013B03F00F0313432278012A02D14FF4803200E000221343C5F8003294F83030C5F8043394F8203013B14FF0007200E0002294F82130012B02D14FF081
:40198000807300E00023134394F82820012A02D14FF4803200E00022134394F8242013432B6594F83830C5F80432636B23F4926323F002031B051B0DC5F8C83FE36B23F0C0
:4019C0008C035B055B0DC5F8883F76B1002070603060B060F0603062F0623063044B736370BD04487047034870BD002070BD00BFEFCDAB000160AA000B694A69934202D372
:401A00004869181A7047CA694869101A184470472DE9F04107460D46036813F4006F02D04FF0800801E04FF040084FEA5808D7F80863C6F308062C6926E00134EB689C4287
:401A400000D100246B699C420FD12B6B0BB1082098476B699C4208D10023C7F8C83F0CB1013C13E0EC68013C10E0D7F84023D7F8003303F00F03072B02D8AB681A5502E0FB
:401A8000AB6823F81420013E002ED6D12C61EC6829463846FFF7B0FF201A804519D908B1441E00E000243B6813F4006F01D0802300E040239C4204D34FF42071064800F096
:401AC000F9F8D7F8040320F0FF03E0B21843C7F80403BDE8F08100BF8028081038B504460D46D0F8003E13F0080F35D0D0F8CC3F13F448730AD04A681A434A60C0F8C03F37
:401B0000D0F8C03F0B6B0BB110209847D4F8CC3F13F4006F09D06B6843F400636B604FF40063C4F8C03FD4F8C03FD4F8CC3F13F0010F11D0EB6923B129462046FFF72EFD2A
:401B400005E0AB681BB129462046FFF761FF0123C4F8C03FD4F8C03FD4F8003E13F0040F2ED0D4F88C3F13F4A0630AD02A681A432A60C4F8803FD4F8803F2B6B0BB1202022
:401B80009847D4F88C3F13F0010F08D029462046FFF796FC0123C4F8803FD4F8803FD4F88C3F13F4007F0BD00022C4F8882F2B6823F001032B60EA622B6B0BB102209847DC
:401BC00038BD00BF38B50D4B9A680D4B9A420FD10D46044621B940F237110A4800F06AF804F11003064A52F8230042F8235038BD1030054B53F8200038BD00BF00ED00E05E
:401C000000400208042908100000081048B338B504460D464368072B03D93221134800F049F8B4F900306268002B08DB5201D2B203F1604303F5614383F8002305E003F0AB
:401C40000F035201D2B20A49CA540A4B9A680A4B9A4208D12946B4F90000FFF7B3FF002038BD06487047002038BD00BF0429081014ED00E000ED00E0004002080100560063
:401C800010B5044605E0084B186800F075F8A4F50044B4F5004FF6D8044B186800FB04F000F06AF810BD00BFAC420208A842020801BEFEE738B50D46044C182201462046BA
:401CC00000F094F9A5610020FFF7F2FFB8480208FEE700BF08B50268254BDA6142681A6282685A62C2689A620269DA6242691A6382695A63C2699A631E4A916AD963D16A6F
:401D00001964516A5964516B9964926BDA64F1EE103A13F0900F27D0026A154B1A65426A5A65826A9A65C26ADA65026B1A66426B5A66826B9A66C26BDA66026C1A67426C9B
:401D40005A67826C9A67C26CDA67026DC3F88020426DC3F88420826DC3F88820C26DC3F88C20026EC3F89020FFF7B2FF08BD00BFB848020800ED00E00230800803D00130E9
:401D80000238FCD100BF00BF7047EFF3108072B6704780F310887047014B1860704700BFD44B020870B539B900240AE015F8010BFEF7C8FE013402E016460D460024B44298
:401DC000F4DB204670BD00BF70B561B900240FE0FEF7C4FEC0B2287001340A2808D00D2806D0013502E016460D460024B442EFDB204670BD10B501390244904207D010F831
:401E0000013B11F8014FA342F7D0181B10BD002010BD02440346934202D003F8011BFAE770470000194B10B51C68A36BD3B9182000F090FA43F20E33A06303804AF6CD335A
:401E4000438041F2342383804EF26D63C3804DF6EC630381052343810B23838101220023C0E90423A16B0A4C0B694869094A5C4302FB0040A3FB02230132034443F100034B
:401E8000C1E9042323F0004010BD00BF104302082DF451582D7F954C2DE9F7431D464F4B1E6804460F46904626B1B36913B9304600F0A2F94A4B9C4201D1746808E0494B19
:401EC0009C4201D1B46803E0474B9C4208BFF468B8F1020F04D0B8F1010F79D8002D77DB2146304600F01EF9616B41B104F14403994202D0304600F035FA0023636300235D
:401F0000A3616360A3891B0603D52169304600F029FAA38923F44A6323F00303B8F1020FA3811ED001AB6A462146304600F0EEF9A3891843A0810DB9009D00E02FBB28467A
:401F400000F008FA0746D0B9DDF80090A94502D14FF0FF3006E0484600F0FCF9074678B9F6E70020A38943F00203A3810023A36004F1470323602361012363612AE0A9465C
:401F8000A38943F08003A3814D46B36913B9304600F032F9B8F1010F08BFA389276004BF43F00103A381A389276103F0080080B2656158B113F001034FF000001DBF6D423D
:401FC000A060A561A56008BF184603E0A06001E04FF0FF3003B0BDE8F08300BF10430208C02A0810E02A0810002B081010B5034642B111F8014B03F8014B013A002CF7D165
:402000001A4400E010BD934202D003F8014BFAE710BD00008A892DE9F041054610070C4659D44B68002B02DC0B6C002B17DDE66AAEB102F48052002392B22F682B600AB1B1
:40204000606D15E0216A01232846B047411C0FD12B686BB11D2B01D0162B03D12F600020BDE8F081A38943F04003A381BDE8F081A3895A0705D56368C01A636B0BB1236CAA
:40208000C01A00230246E66A216A2846B047431CA38906D129681D293AD8214ACA40D60736D500226260D9042269226004D5421C01D12B6803B96065616B2F600029CED0E6
:4020C00004F14403994202D0284600F04BF900206063BDE8F0810F69002FC0D093070E6808BF4B690F6018BF0023C7EB06088B6002E00744C0EB0808B8F1000FAFDD4346D1
:402100003A46216AA66A2846B0470028F1DCA38943F04003A3814FF0FF30BDE8F08100BF0100402038B50B6905460C46DBB118B183690BB900F060F80C4B9C4201D16C689A
:4021400008E00B4B9C4201D1AC6803E0094B9C4208BFEC68B4F90C302BB121462846BDE83840FFF757BF002038BD00BFC02A0810E02A0810002B0810014900F0A9B800BFD5
:4021800025210810002310B5044603604360836081814366C281036143618361194608225C30FFF736FE054B6362054BA362054BE362054B2462236310BD00BFDD2408108D
:4021C000FF240810372508105B25081070B568234D1E5D430E4605F1740100F011F9044640B1002180E842000C30A06005F16802FFF70FFE204670BD836910B5044633BB03
:402200008364C3640365124B124A1B688262984204BF0123836100F01FF86060204600F01BF8A060204600F017F80022E06004216068FFF7A7FF01220921A068FFF7A2FFF7
:4022400002221221E068FFF79DFF0123A36110BDBC2A081079210810F8B51C4B1E68B369074613B93046FFF7C7FF4836B4687368013B04D4B4F90C507DB16834F8E73368B1
:402280000BB13668F2E704213846FFF79FFF30600028F6D10C233B60F8BD4FF6FF73E3810123A38165662560A560656025616561A5610822294604F15C00FFF7AAFD656398
:4022C000A563A564E5642046F8BD00BFBC2A08102DE9F8438046894600F14804002694B1A5686768013F0CD4AB89012B07D9B5F90E30013303D029464046C8470643683505
:40230000F0E72468EBE73046BDE8F88370B50E46B1F90E10002990B014461D4606DA00232B60B3891A060ED540230EE001AA00F03BF90028F3DB029A02F47042A2F500535A
:402340005A425A412A604FF480630020236010B070BD0000024B0146186800F051B800BF1043020838B50546002946D051F8043C0C1F002BB8BFE41800F03AF91F4A1368ED
:40238000114613B96360146032E0A3420ED92268A018834204BF18685B68636004BF121822600C6024E0A24203D813465A68002AF9D118681918A1420BD1216801445818BA
:4023C0008242196014D1106852685A60014419600EE002D90C232B600AE021686018824204BF10685268626004BF091821605C602846BDE8384000F0FCB838BD944B0208FA
:4024000070B5CD1C25F0030508350C2D38BF0C25002D064601DBA94202D90C23336046E000F0E6F8234B1C681A462146A1B10B685B1B0ED40B2B03D90B60CC18CD501EE0B0
:402440008C420DBF63684B686360136018BF0C4615E00C464968E9E7174C23681BB9304600F02CF820602946304600F027F8431C18D0C41C24F00304A0420DD12560304660
:4024800000F0B7F804F10B00231D20F00700C31A0ED05A42E25070BD211A304600F00EF80130EBD10C233360304600F0A2F8002070BD00BF944B0208904B020838B5064C01
:4024C000002305460846236000F0BEF8431C02D1236803B12B6038BDD84B020810B50C46B1F90E1000F086F80028ABBF636DA3891B1823F48053ACBF6365A38110BD2DE9A7
:40250000F0411F468B89DB0505460C46164605D502230022B1F90E1000F058F8A389B4F90E1023F48053A38132463B462846BDE8F04100F017B810B50C46B1F90E1000F01F
:4025400045F8431CA38915BF606523F4805343F48053A38118BFA38110BDB1F90E1000F013B8000038B5074C054608461146002222601A46FFF716FC431C02D1236803B1EA
:402580002B6038BDD84B020838B5064C002305460846236000F040F8431C02D1236803B12B6038BDD84B020838B5074C0023054608461146236000F037F8431C02D12368F8
:4025C00003B12B6038BD00BFD84B020838B5074C054608461146002222601A4600F02CF8431C02D1236803B12B6038BDD84B02087047704738B5074C054608461146002295
:4026000022601A46FFF7E0FB431C02D1236803B12B6038BDD84B0208024B58221A604FF0FF307047D84B0208024B58221A604FF0FF307047D84B0208024B58221A604FF023
:40264000FF307047D84B0208044A05491368002B08BF0B461844106018467047984B0208E04B0208F8B500BFF8BC08BC9E467047F8B500BFF8BC08BC9E467047FFFFFF00EF
:402680000000000000000000FFFFFF000000000000000000FFFFFFFF0000FF0000FF000000FF0000FF0000FF000000FF0000FF0000FFFF000000FF000000FF0000FF00FF2E
:4026C00000FF00000300000001000000010000000000000005036000040000000100000000000000010000000604600008000000084B0208350908102E000000070000000E
:40270000000000000C0000000800000000020000000000000000000000000000000000000000000000000000000000000B0000000000000000000000000000000000000078
:4027400047656E6572617465645F536F757263655C50536F43365C70646C5C647269766572732F7065726970686572616C2F6970632F63795F6970635F6472762E6800006F
:4027800047656E6572617465645F536F757263655C50536F43365C70646C5C647269766572735C7065726970686572616C5C6970635C63795F6970635F6472762E680000A8
:4027C00047656E6572617465645F536F757263655C50536F43365C70646C5C647269766572735C7065726970686572616C5C6970635C63795F6970635F6472762E6300006D
:4028000047656E6572617465645F536F757263655C50536F43365C70646C5C647269766572735C7065726970686572616C5C6970635C63795F6970635F706970652E6300CA
:4028400047656E6572617465645F536F757263655C50536F43365C70646C5C647269766572735C7065726970686572616C5C7363625C63795F7363625F756172742E68007F
:4028800047656E6572617465645F536F757263655C50536F43365C70646C5C647269766572735C7065726970686572616C5C7363625C63795F7363625F636F6D6D6F6E2EDA
:4028C0006800000047656E6572617465645F536F757263655C50536F43365C70646C5C647269766572735C7065726970686572616C5C7363625C63795F7363625F756172A1
:40290000742E630047656E6572617465645F536F757263655C50536F43365C70646C5C647269766572735C7065726970686572616C5C737973696E745C63795F7379736968
:402940006E742E63000000000000204000002440000000400000000000002340000030400000314000009F40000022400000104002020202020202020210101D8000170025
:402980007500FF030602063604102000000000007FC0000000040000000000000019324B647D00804000080B100000000000FF012002001F00800004FF0810180010001473
:4029C0000018001C4044484C50000000081000000800000004000000041000000012000004210000002100000016000040114002C41300138013A013200000001C00000096
:402A00000000214000002540000001400000344000002440000031400000324000001F410000234000001140010101010101010101101010800019005500F0000501053B63
:402A400004101C01010000000FC000000004000001010101011D3A57789600082000101208000000001F00000010000F002000023F06080E00080009000A000B24282C30B5
:402A800034000000100000009000000088000000080000008000000004F0000000F00000400200002005A000D00100018001A001200000001000000043000000B0420208E4
:402AC00000000000000000000000000000000000000000000000000000000000000000000000000000000000000000000000000000000000000000000000000000000000D6
:402B000000000000000000000000000000000000000000000000000000000000000000000000000000000810004002088C020000442B08108C4202082C0600004C49020875
:402B400090020000010100000048E80100127A0000093D0000127A0000127A0008000000401F00000000A00F00000000C02A0810E02A0810002B0810000000000000000029
:402B80000000000000000000B82A0810000000000000000000000000000000000000000000000000000000000000000000000000000000000000000000000000000000001B
:402BC0000000000000000000B0420208B10208108D0208100000000080B2C10050B3164B1B681A6AB3F8B030C3EBC303D358002BF5DA3E22114B1A6041F61E7204331A6037
:402C0000A3F584730622C3F8182521F07F41C3F81C15D3F81C35084B1A68116AB2F8B030C3EBC3030B4400225A60054BD3F81C35002BFADA704700BFD44B0208040126401E
:402C400000002640F8B5274B1B6893F83130052B04D840F2C311244800F062FA214F3A68166AB2F8B03003EB83031E4452684FF26003D458A4B200F06BFA05463B68196800
:402C8000D3F890208A58013C032C27D8032A0CD1164A127812F0FF0F07D10822B2601968D3F890208A58032AF9D01968D3F884208B588858C0F307221B0E581C02FB000037
:402CC0000B4B03FB00F00B4B1B680B4AA2FB03239B09B0FBF3F08230FFF77EFF284600F007FAF8BDD44B0208402708100B00001640420F0094420208D34D62104378FF2B83
:402D000023D110B500F024FA0446104B1B6893F83130042B04D840F2C3110D4800F000FA0A4B1A68136AB2F8B02003EB8203DB685A68136843F001031360136813F0010F6F
:402D4000FBD1204600F0D4F910BD7047D44B0208402708102DE9F04707468846554B1B6893F83130012B04D840F2C311524800F0D7F9504B1B681C6AB3F8B0201444D3F817
:402D8000B420161993F85030002B79D04B4B1B7813F0FF0F02D04FF0000901E04FF00109B9F1000F38D0434B1B6893F83130052B04D840F2C311404800F0B2F93D4B1A6816
:402DC000116AB2F8B03003EB83030B44D2F8B420D358002B22DB002000F09AF9384B98421ED00023374A12690121184600F0B8F918B1354D17E0013500E00025002000F05F
:402E000087F92F4B984202D0304B9D42F3D92F4B9D4207D92C4D06E0002504E02A4D02E0294D00E00025002D41D100F091F98246274BD3F81C35002B10DA224A0121204639
:402E400000F076F960B94046FFF7C6FE57B13368002BFCDB00F074F9054604E01A4D02E0194D00E01B4DB9F1000F05D00121002000F046F90028F9D1504600F039F916E0D3
:402E800000F066F980460F4A0121204600F050F938B947B13368002BFCDB00F051F9054602E0094D00E00B4D404600F021F92846BDE8F087D44B0208402708100B00001685
:402EC000010188002C4B020805005200EF4902000000264001005000F0B47F4B1A6855684FF0B0535B7813F0FF0F04D04FF0B0535B78DBB200E02123212B55D1116AB2F87B
:402F0000B030C3EBC303CC18CB58002BF6DAE36843F00103E360146AB2F8B030C3EBC3031C44E36813F0020F2DD0E3689EB21368D2F884105958090A090401F47F01D2F8BA
:402F40008870DB591B0A41EA03633343E3601168D2F884208B5823F47F4343F410638B505D4A13681C68D3F88810635823F47F4343F41063635013681A68D3F8841051588F
:402F8000D3F88830D358544B1A68116AB2F8B030C3EBC3030B4400215960116AB2F8B030C3EBC3030B445B684B4B19680C68D1F894301C44494A136943F0040313610128B7
:402FC00001D030BF07E020BF454B1B7803B120BF0122434B1A70236803F00303022BE9D00A6AB1F8B030C3EBC303D018D358002BF6DA4FF0B0535B7813F0FF0F04D04FF038
:40300000B0535B78DBB200E02123212B30D1C36813F0020F1FD00C68D1F88410635823F47F42C3681B0C1B0203F47F4313436350294B19680C68D1F88800235823F47F42EC
:403040000D6AB1F8B030C3EBC3032B44DB681B0E42EA03232350204B1A68136AB2F8B020C2EBC2021344DA6822F00102DA6026E0D5F80C311BBB1B490E681B4BD3F81845B1
:403080001A4A106841F61E770F600621C3F818153E2111604422C3F81C25134BD3F81C35002BFADA4FF0AA33C5F80C310D4B1E60A3F58473C3F8184503F582731860064BF6
:4030C0001A68116AB2F8B030C3EBC3030B4400225A60F0BC704700BFD44B020800ED00E0544B020808012640000026400401264001B40248844601BC604700BF931D0810F5
:4031000001B40248844601BC604700BF490F081001B40248844601BC604700BFD10F081001B40248844601BC604700BFB51C081001B40248844601BC604700BFC50D0810A4
:4031400001B40248844601BC604700BF9D0C081001B40248844601BC604700BF8B1D081001B40248844601BC604700BFA5110810000000000000000000000000000000003C
:40318000000000000000000000000000000000000000000000000000000000000000000000000000000000000000000000000000000000000000000000000000000000000F
:4031C00000000000000000000000000000000000000000000000000000000000000000000000000000000000000000000000000000000000000000000000000000000000CF
:0200000490303A
:02000000795D28
:0200000490501A
:0C0000000005E2F021002101E30E9A5DF2
:00000001FF